S011000046696E616C50726F6A2E737265638E
S1130000CEC00000EAC00000E8C00000E6C0000066
S1130010E4C00000E2C00000E0C00000DEC0000058
S1130020DCC000000C94A209D8C00000D6C00000B7
S1130030D4C00000D2C00000D0C00000CEC0000078
S1130040CCC00000CAC0000018C10000C6C0000037
S11300507BC10000C2C00000C0C00000BEC00000E0
S1130060BCC00000BAC00000B8C00000B6C00000A8
S1130070B4C00000B2C00000B0C00000AEC00000B8
S1130080ACC00000AAC00000A8C00000DA05C60584
S11300902806C605DB05C605C605C605E205C60570
S11300A0C605C605D805C6052B06C605C6050C0635
S11300B0FA0E080FC10EC10EFC0EC10EC10EC10E08
S11300C0020FC10EC10EC10E000FC10EC10E060FEC
S11300D0C10EFE0E040F072C7AA5BA6CC590DA3B4C
S11300E09365FC8BBC53F810FD3C5692834DBD8741
S11300F09D3AB63DCBC9BF5BBE73DA0FC93F05A8B5
S11301004CCDB2D44EB93836A9020C50B991868878
S1130110083CA6AAAA2ABE000000803F0763423614
S1130120B79BD8A71A39685618AEBAAB558C1D3C84
S1130130B7CC5763BD6DEDFD753EF6177231BF0048
S11301400000803F08000000BE922449123EABAA82
S1130150AA2ABECDCCCC4C3E00000080BEABAAAADD
S1130160AA3E00000000BF000000803F0000000025
S113017000084178D3BB4387D1133D190E3CC3BD5E
S11301804282AD2B3E68EC8276BED98FE1A93E4C0B
S113019080EFFFBE01C4FF7F3F0000000000112478
S11301A01FBECFEFD0E1DEBFCDBF17E0A0E0B1E0CE
S11301B0EAE3F5E300E00BBF02C007900D92AA3A10
S11301C0B107D9F729E0AAEAB7E001C01D92A0322D
S11301D0B207E1F743D50C949B1A12CF20910C017E
S11301E030910D01232BD1F310920D0110920C01CB
S11301F043E650E0BC0186EB97E00E943C1786EB97
S113020097E090930F0180930E015D9BFECF87EBE7
S113021097E090930F0180930E018091B6078CB9FB
S113022008950F931F93CF93DF938C01EB012091DB
S1130230AA073091AB07232BD1F3C930D10514F0B1
S1130240CAE0D0E0AE016CEA77E0C8010E943C1736
S11302500C0F1D1FF801319710828CEA97E09093E0
S11302600B0180930A011092AB071092AA07CE01EA
S1130270DF91CF911F910F9108951F920F920FB6A6
S11302800F9211240BB60F922F933F934F935F93CA
S11302906F937F938F939F93AF93BF93EF93FF934A
S11302A02CB18091AA079091AB07892B21F08AEB9E
S11302B091E094DF36C02D3061F4E0910A01F091B1
S11302C00B01108281E090E09093AB078093AA0722
S11302D028C02CB9E0910A01F0910B01CF018C5A8E
S11302E0974089309105BCF42F3769F41816190624
S11302F034F43197F0930B01E0930A0112C08AEBB6
S113030091E06CDF0EC0CF01019690930B018093B6
S11303100A01208306C081E090E09093AB078093AC
S1130320AA07FF91EF91BF91AF919F918F917F9118
S11303306F915F914F913F912F910F900BBE0F9052
S11303400FBE0F901F9018951F920F920FB60F9229
S113035011240BB60F928F939F93EF93FF93809189
S11303600C0190910D01892BA1F4E0910E01F09103
S11303700F018081882339F03196F0930F01E093C7
S11303800E018CB906C081E090E090930D0180933A
S11303900C01FF91EF919F918F910F900BBE0F90E5
S11303A00FBE0F901F9018952F923F924F925F921D
S11303B06F927F928F929F92AF92BF92CF92DF9271
S11303C0EF92FF920F931F93CF93DF93CDB7DEB7D6
S11303D0C655D1090FB6F894DEBF0FBECDBF6B0171
S11303E065965FAF4EAF659767963FAF2EAF679741
S11303F0161617060CF0C2C0482E592E21E030E024
S113040063963FAF2EAF63970CC038E0430E511C88
S113041063968EAD9FAD6397019663969FAF8EAF43
S113042063971201F2018081918103970CF09BC0C4
S11304306396EEACFFAC6397EC14FD040CF0A1C022
S11304408201085F1F4F5801F80180819181039751
S11304500CF07FC064807580F10184819581681AF5
S1130460790A42815381F80162817381C3010E9438
S1130470740C4C018997879708F06BC0F101848153
S113048095819301772014F42F5F3F4F39017594C0
S113049067949C01260D371D3F932F939F938F9351
S11304A0F50185818F9384818F939F928F928CEB3A
S11304B091E09F938F938E010F5F1F4F1F930F93B4
S11304C00E945317C8018ADEF10162817381F5012C
S11304D082819381681B790B882777FD8095982FFB
S11304E00E942C126B017C01B401882777FD809552
S11304F0982F0E942C129B01AC01C701B6010E94E7
S113050091110E94E0130E94F9116796EEADFFADC0
S1130510679771836083F10122813381F5018281C0
S11305209381820F931F0FB6F894DEBF0FBECDBF29
S113053099230CF40196959587956596EEADFFADDC
S1130540659791838083F10184819581860D971D40
S11305501AC0FFEFEF1AFF0A085F1F4FEC14FD04E7
S11305600CF471CF52CF63962EAD3FAD63972C152B
S11305703D050CF44ACF8FEF9FEF05C08FEF9FEF3F
S113058002C08FEF9FEFCA5ADF4F0FB6F894DEBF59
S11305900FBECDBFDF91CF911F910F91FF90EF90D0
S11305A0DF90CF90BF90AF909F908F907F906F908F
S11305B05F904F903F902F900895662359F08BEFF2
S11305C091E00CDE60911809709119098AE590E0B8
S11305D0D0C608958BEF91E001DE60911809709107
S11305E0190986EA9FEFC5C608952F923F924F924C
S11305F05F926F927F928F929F92AF92BF92CF92AF
S1130600DF92EF92FF920F931F93CF93DF93CDB7B7
S1130610DEB7C855D1090FB6F894DEBF0FBECDBF03
S113062069969FAF8EAF699767965FAF4EAF679736
S1130630141615060CF099C0062F172F212C312CF7
S1130640F8010280F381E02D6396FFAFEEAF63976C
S1130650BF01882777FD8095982F0E942C124B01AB
S11306605C01F8010480F581E02D6596FFAFEEAFE3
S11306706597BF01882777FD8095982F0E942C12DB
S113068020E030E044E353E40E9491112BED3FE07D
S113069049E450E40E9431136B017C010E94E01391
S11306A02B013C01C701B6010E948E119B01AC01D4
S11306B0C501B4010E9431130E94F911E62EF72EF0
S11306C0675F7F4F6331710508F041C0A301920158
S11306D0C501B4010E9431130E94F911262F372F4E
S11306E0862F972F99231CF49195819591096996EA
S11306F04EAD5FAD6997841795074CF53F932F93E3
S1130700FF92EF9263965FAD63975F9362968FADAE
S113071062978F9365969FAD65979F936496EFADAF
S11307206497EF9389E192E09F938F938E010F5F1B
S11307301F4F1F930F930E945317C8014FDD0FB62D
S1130740F894DEBF0FBECDBF822D932D13C03FEFB3
S1130750231A330A085F1F4F67964EAD5FAD679744
S11307602416350609F06CCF03C08FEF9FEF02C04B
S11307708FEF9FEFC85ADF4F0FB6F894DEBF0FBE5E
S1130780CDBFDF91CF911F910F91FF90EF90DF903C
S1130790CF90BF90AF909F908F907F906F905F901D
S11307A04F903F902F900895CF93DF93CDB7DEB74E
S11307B0C755D1090FB6F894DEBF0FBECDBF0F2EBB
S11307C0F8E58F2EF2E09F2EF02D0F2EF4EF4F2E32
S11307D0F2E05F2EF02D7E0128E0E20EF11C6E2C7B
S11307E07F2C0F2EF5E8CF2EF2E0DF2EF02D9F9216
S11307F08F9292D386E692E0F1DCCE0101960E94BC
S1130800FD0D8C0169817A819E012A5F3F4FAE0103
S11308104D5F5F4FC9DD0F900F90019609F496C0AC
S113082049815A81B80184EF91E0DFDE5C018FEFEA
S1130830A816B80699F186E792E0D0DCF501EE0F30
S1130840FF1FEE0FFF1FEE0FFF1FE00FF11F62816E
S113085073818081918199230CF4019695958795F4
S11308600A960E94D60C082F192F9F938F93DF921C
S1130870CF92FF92EF920E945317862D972DAEDCF4
S11308806091180970911909802F912F72D50F90DA
S11308900F900F900F900F900F90BCC080EC92E0DF
S11308A09DDC69817A819E012A5F3F4FAE014D5FD5
S11308B05F4FC80179DD60911809709119098A5553
S11308C0910957D560911809709119098E010B5F30
S11308D01F4F20E040E08B819C81DCD69C838B837E
S11308E08D81843069F486ED92E09F938F9314D3C5
S11308F08EED92E073DC82E040D20F900F90FFCF38
S113090060911809709119098E819F8132D5609187
S11309101809709119098E010B5F1F4F20E040E008
S113092080E991E0B7D69C838B838D81843009F074
S113093071C086ED92E09F938F93EED289EE92E0A0
S11309404DDC82E01AD20F900F90FFCF49815A817B
S1130950B80184EF91E049DE5C018F3F2FEF9207ED
S113096091F186E792E03ADCF501EE0FFF1FEE0FFE
S1130970FF1FEE0FFF1FE00FF11F62817381808163
S1130980918199230CF40196959587950A960E9476
S1130990D60C082F192F9F938F93DF92CF92FF923B
S11309A0EF920E945317862D972D18DC6091180939
S11309B070911909802F912FDCD40F900F900F9014
S11309C00F900F900F9060911809709119098E0182
S11309D00B5F1F4F20E040E084EF91E05BD69C83E7
S11309E08B83ED81F0E0EE0FFF1FE255FE4F818116
S11309F08F9380818F935F924F92FF92EF920E9428
S1130A005317862D972DEADB0F900F900F900F90C0
S1130A100F900F908D81823049F128F4882369F07A
S1130A20813049F0E4CE833021F0843009F437C0BA
S1130A30DECE11E01CC011E001C010E081E093E0C3
S1130A40CDDB85E193E09F938F9366D20F900F9057
S1130A5080911A08811102C083E08FD181E08093D4
S1130A601A08612F88EC90E0A8DDBBCE10E08BE182
S1130A7093E0B4DB8DE293E09F938F934DD20F907C
S1130A800F9080911A08811102C083E076D181E031
S1130A9080931A08612F84EF91E08FDDA2CE8CE35E
S1130AA093E09CDBCE0101960E94FD0D49815A81A1
S1130AB01416150694F5E82FF92F80E090E060E015
S1130AC071E0228133812233310514F5248135818B
S1130AD02A3531059CF5672F2B353105CCF086ED91
S1130AE092E09F938F9318D28DE493E077DB60912B
S1130AF01809709119098E010B5F1F4F21E040E026
S1130B0086E990E0C7D582E038D10F900F90FFCFEF
S1130B100196389684179507A1F686E593E09F938E
S1130B208F93FAD10E94FA166091180970911909ED
S1130B308CE99FEF1ED40F900F9053CE6111CCCF50
S1130B40E7CFCF93DF93CDB7DEB7C556D1090FB644
S1130B50F894DEBF0FBECDBF81E08093170950D15A
S1130B6060D17E0182E5E80EF11C4E2C5F2C47011A
S1130B7092E0890E911C6E01A2E0CA0ED11C0F2EC8
S1130B80FFE6AF2EF3E0BF2EF02D212C64E170E0E0
S1130B90842D952D46DBF701808190E0FC01E15620
S1130BA0F109E231F10590F7EA5BFF4F0C94471528
S1130BB0322C0AC0F9DD80911809909119090E941C
S1130BC0BB0FE4CF33243394609018097090190953
S1130BD0C4010E9408178E010F5F1F4F232D432D60
S1130BE0B30158D5E981F0E0EE0FFF1FE255FE4F47
S1130BF021812F9320812F939F938F93BF92AF9244
S1130C00DF92CF920E945317C601E8DA0FB6F89428
S1130C10DEBF0FBECDBFBACF60901809709019091E
S1130C20C4010E940817B301A4D39F938F93A8E72C
S1130C30B3E0BF93AF93DF92CF920E945317C601E4
S1130C40CDDA0F900F900F900F900F900F909ECFD2
S1130C500E940E0F9BCF82E090D098CFBBD00BD1D7
S1130C60C6D090931909809318098EE793E09F9357
S1130C708F9352D10F900F90C0E0D0E00F2EFAEE78
S1130C80AF2EF4E0BF2EF02D0F2EF9E9CF2EF4E0B5
S1130C90DF2EF02D0F2EF2E4EF2EF4E0FF2EF02DD8
S1130CA004EF13E088248394912C0E94BC0E8111DC
S1130CB012C08BE993E092DA84EC93E08FDA1F930D
S1130CC00F932AD19DD0ADD081E057D00F900F90D3
S1130CD0C82DD92DEACF813059F487E194E07EDA2A
S1130CE082E04BD0FF92EF9217D10F900F90DDCF9F
S1130CF0823049F48BE694E071DADF92CF920CD122
S1130D000F900F90D2CF833071F4209721F485ECAB
S1130D1094E064DACACF60E08091180990911909CF
S1130D200E949810C2CF843041F461E08091180988
S1130D30909119090E949810B8CF8530B9F4209782
S1130D4021F485EC94E04ADAB0CFBF92AF92E4D0BC
S1130D5080911809909119090E94BB0F8CEF94E0BF
S1130D603DDA0E940E0F0F900F909FCF863009F44A
S1130D701BDD873009F099CFE4DE823089F08330BF
S1130D80E1F0813031F526E231E047E551E061E3FD
S1130D9070E081E090E07CD181E090E0AAC1089508
S1130DA028E831E04BE951E063E170E082E090E053
S1130DB06FD182E090E09DC1089520E131E04BE1E4
S1130DC051E06BE070E083E090E062D183E090E07A
S1130DD090C1089582E08BB988ED8AB986E080934A
S1130DE095001092900082E289B978940895CF9387
S1130DF0DF930CD1EC0148D2CE01DF91CF9108955D
S1130E00149A87EF97EA90938700809386008AE587
S1130E1090E024D683E280938B008AE180938A0059
S1130E20089582EC87B987E886B90895DE9A90E040
S1130E3073D2DE988BB3807F8BBB0895CF93C82F7A
S1130E40DC988BB39C2F92959F70892B8BBB82E08F
S1130E50EDDF8BB3CF70C82BCBBB82E0E7DFDC9A2E
S1130E60CF91089581E0EADF81E090E055C20895D2
S1130E7082E0E4CF08958FEF8ABB83E08BBBDE9AD8
S1130E8081E090E049D2DE9885E090E045D2DE9A98
S1130E9081E090E041D2DE98DE9A81E090E03CD29D
S1130EA0DE9882E08BBB81E0C1DF8BB38BBB81E03A
S1130EB0BDDF8BB38E608BBB81E0B8DF8BB38BBBA4
S1130EC081E0B4DF8BB386608BBB81E0AFDF8BB393
S1130ED08BBB81E0ABDFD89A81E0A8DFDC9AC8CF76
S1130EE0089580ECABCF089584E9A8CF089584EDEC
S1130EF0A5CF0895CF93C82F8BB39C2F92959F7045
S1130F00892B8BBB81E092DF8BB3CF70C82BCBBB1B
S1130F1081E08CDFCF910895CF92DF92EF92FF9220
S1130F200F931F93CF93DF93CDB7DEB7C155D1098C
S1130F300FB6F894DEBF0FBECDBFFE01E45AFF4FDB
S1130F40419151919F0161E570E0CE0101960E94AB
S1130F508117BE016F5F7F4F8BE198E00E942C17D1
S1130F60892B09F443C0BE016F5F7F4F8BE198E08A
S1130F700E94351777DF9E012F5F3F4F690100E024
S1130F8010E00F2EF4E1EF2EF12CF02D27C08A3063
S1130F9051F4C801B7010E943415F701E81BF90B9D
S1130FA00E0F1F1F03C0A6DF0F5F1F4FC801B7013D
S1130FB00E943415892B91F4C801B7010E9434159D
S1130FC06230710541F06330710539F061307105AB
S1130FD029F487DF03C088DF01C089DFF60181912E
S1130FE06F01882319F0003511058CF2CF5ADF4FB9
S1130FF00FB6F894DEBF0FBECDBFDF91CF911F9126
S11310000F91FF90EF90DF90CF90089564E370E02C
S113101081E090E00C9470150895EBE9F0E0908184
S113102095FFFDCF80939C0008950F931F93CF935A
S1131030DF93082F162FD42FC22F8BE8EEDF112356
S113104029F081E0011103C080E001C080E0E5DF08
S11310508D2FE3DF8C2FE1DFDF91CF911F910F9173
S113106008950F931F93CF93DF93182F092FC62F43
S1131070D72F81E9D2DF802FD0DF812FCEDF8D2FD4
S1131080CCDF8C2FCADFDF91CF911F910F91089590
S1131090AF92BF92CF92DF92EF92FF920F931F9382
S11310A0CF93DF93C82F7B016A01A22EB32E8CE865
S11310B0B4DF8C2FB2DF8E2DB0DF1E141F0474F446
S11310C0E6010A2D1B2DEC0CFD1C8991A6DFF8010D
S11310D081918F01A2DFCE15DF05B9F7DF91CF91A2
S11310E01F910F91FF90EF90DF90CF90BF90AF9042
S11310F00895CF93C82F8DE890DF8C2F8EDFCF918A
S11311000895EBE9F0E080818823ECF780919C005E
S11311100895EF92FF920F931F93CF93DF937C0177
S113112080919B00882344F4ACE9B0E0EBE9F0E063
S11311308C9180818823E4F38EE86FDF86E06DDF95
S1131140E70187010C5C1F4FDCDF8993C017D107CF
S1131150D9F7F701848590E0982F88272585820F99
S1131160911D95878487868590E0982F8827278509
S1131170820F911D97878687818990E0982F882711
S11311802289820F911D928B818B838990E0982F05
S113119088272489820F911D948B838B868990E004
S11311A0982F88272789820F911D978B868B808D96
S11311B090E0982F8827218D820F911D918F808F29
S11311C0828D90E0982F8827238D820F911D938F15
S11311D0828F848D90E0982F8827258D820F911D12
S11311E0958F848F868D90E0982F8827278D820F86
S11311F0911D978F868F80A190E0982F882721A139
S1131200820F911D91A380A382A190E0982F88273B
S113121023A1820F911D93A382A382A590E021A50F
S113122030E0322F2227280F391F36A325A320A907
S113123030E0322F2227820F931F95A784A782A91B
S113124090E0982F882723A9820F911D97A786A73E
S113125084A990E0982F882725A9820F911D91AB2E
S113126080AB86A990E0982F882727A9820F911D2B
S113127093AB82AB8AE090E04FD0DF91CF911F9186
S11312800F91FF90EF9008950F931F93CF93DF93E7
S1131290EC0109E910E080E1F801808388E18093A2
S11312A09A0086E080939D0080E8B7DE81E8B5DE91
S11312B088E0B3DE84E690E02FD081E2F8018083F9
S11312C084E8ABDE2FEF47E061E081E0AEDECE01E3
S11312D020DFCE011EDFDF91CF911F910F91089582
S11312E010921B0910921A09811106C08BE085BD6A
S11312F087B7806887BF07C0813029F489E085BD3E
S113130087B7806887BF7894089587B78F7787BF3A
S113131085B58F7785BD0895CF93DF93EC018AEF70
S113132083BD10921B0910921A0980E0D9DF209125
S11313301A0930911B092C173D07C8F3E6DFDF912A
S1131340CF9108951F920F920FB60F9211248F938D
S11313509F9380911A0990911B09019690931B0900
S113136080931A099F918F910F900FBE0F901F9039
S11313701895EF92FF920F931F93CF93DF937C0105
S11313808B01992394F468EC70E088E39FEF69DEA5
S1131390C0E0D0E0C801BDDEF80186859785C80F9E
S11313A0D91FEC16FD06B4F314C068E37FEF88EC94
S11313B090E057DE1E141F0464F4C0E0D0E0C801BE
S11313C0A8DEF80126853785C20FD31FCE15DF05A9
S11313D0B4F360E070E080E090E043DEC701DF91A9
S11313E0CF911F910F91FF90EF9008956F927F928C
S11313F08F929F92AF92BF92CF92DF92EF92FF9221
S11314000F931F93CF93DF93EC0180919E088F93EA
S113141080919D088F9380919C088F9380919B0865
S11314208F9380919A088F93809199088F938091DC
S113143098088F93809197088F9383E195E09F9309
S11314408F936ADD8DB79EB70A960FB6F8949EBF48
S11314500FBE8DBF80919608882309F454C08091F3
S1131460970890919808880F991F2C8D3D8D8217AD
S1131470930750F400E010E021E041E0BE018CE964
S11314809FEF08D15C016CC08091990890919A08F3
S1131490880F991F2E8D3F8D8217930750F400E01B
S11314A010E021E041E0BE018CE99FEFF3D05C0144
S11314B057C080919B0890919C08880F991F2AA17E
S11314C03BA18217930750F400E010E021E041E0D3
S11314D0BE018CE99FEFDED05C0142C080919D0883
S11314E090919E08880F991F28A139A1821793070C
S11314F090F500E010E021E041E0BE018CE99FEFAF
S1131500C9D05C012DC0CC8CDD8CEE8CFF8C0AA183
S11315101BA168A179A1ECE8F8E022E838E088E7AB
S113152098E00F2EFEE6AF2EF8E0BF2EF02D46E930
S113153058E0C192D192D901ED92FD929D01DC0156
S11315400D931D93CD01D5016D937D935D01E4173A
S1131550F50779F703C0A12CB12C02C0A12CB12C42
S113156080906C0890906D08C401880F991FFC014D
S1131570E457F74F2C8D3D8D31832083FC01EE57CA
S1131580F74F2E8D3F8D31832083FC01E259F74FB5
S113159028A139A131832083FC01E858F74F2AA1FF
S11315A03BA13183208320E030E0E12CF12C00E0EA
S11315B010E0ECE8F8E082E898E0C8E7D8E00F2E05
S11315C0FEE66F2EF8E07F2EF02D66E978E040E02D
S11315D050E0C190D1902C0D3D1DDC01CD90DD90EB
S11315E0CD01EC0CFD1CC990D9900C0D1D1DD3012F
S11315F0CD90DD903D014C0D5D1DE617F70749F7D1
S1131600ADECBCEC0E944D15969587959695879503
S1131610909398088093970897010E944D1596958A
S113162087959695879590939A0880939908980141
S11316300E944D15969587959695879590939C084D
S113164080939B089A010E944D15969587959695CF
S1131650879590939E0880939D08C401019665E048
S113166070E00E94341590936D0880936C0881E0BB
S113167080939608C501DF91CF911F910F91FF9040
S1131680EF90DF90CF90BF90AF909F908F907F901E
S11316906F9008956F927F928F929F92AF92BF92B4
S11316A0CF92DF92EF92FF920F931F93CF93DF932A
S11316B01F92CDB7DEB74C016B01742E622E01155B
S11316C0110519F48E010F5F1F4F992074F4919442
S11316D08194910868E37FEF88E39FEFC2DC1814DC
S11316E019044CF0E12CF12C3DC068EC70E088EC5E
S11316F090E0B7DCF4CFA12CB12CE12CF12CC60185
S113170008DD711010C0B801C60168D05C010097F3
S113171031F4B801C6013FD05C01009721F0C70144
S11317208A0D9B1D28C061100EC0C6015FDEA80E85
S1131730B91EA114B10439F084E0F8018083C70113
S11317408A0D9B1D18C0F60184859585E80EF91E47
S1131750C701FF2024F4882799278E199F0988152B
S113176099056CF260E070E080E090E07ADC85E05E
S1131770F8018083C7010F90DF91CF911F910F91E2
S1131780FF90EF90DF90CF90BF90AF909F908F909D
S11317907F906F9008950F931F93FC01208121FF88
S11317A00BC0FB01108200E010E021E041E0BC012D
S11317B08CE99FEF6FDF0FC020FF0BC021E0FB011E
S11317C0208300E010E041E0BC018CE99FEF62DF80
S11317D002C080E090E01F910F9108950F931F9332
S11317E0FC018281882361F082E0DB018C9300E0BC
S11317F010E021E041E0BF018CE99FEF4BDF2FC0F7
S11318008381882361F082E0DB018C9300E010E0A7
S113181021E041E0BF018CE99FEF3CDF20C08581DE
S1131820882361F083E0DB018C9300E010E021E089
S113183041E0BF018CE99FEF2DDF11C08481882333
S113184061F083E0DB018C9300E010E021E041E0F3
S1131850BF018CE99FEF1EDF02C080E090E01F9182
S11318600F910895CF92DF92EF92FF92CF93DF937F
S1131870EC01669FC001679F900D900D1124BC017F
S1131880660F771F882777FD8095982FE5D56B0124
S11318907C01BE01882777FD8095982FDDD52BED3F
S11318A03FE049E450E4DDD620E030E044E353E493
S11318B038D534D59B01AC01C701B601D2D69B0102
S11318C0AC01C701B601C5D494D5882777FD8095AE
S11318D0982FC2D57FD78DD5CB01DF91CF91FF90C3
S11318E0EF90DF90CF9008958F929F92AF92BF9226
S11318F0CF92DF92EF92FF920F931F93CF93DF93D8
S11319008B01EA01BC01882777FD8095982FA4D527
S11319102BED3FE049E450E4A4D620E030E044E37A
S113192053E4FFD4FBD46B017C01009FB001019F01
S1131930700D700D1124CC9FC001CD9F900D900DA2
S11319401124680F791F882777FD8095982F84D5F7
S11319504B015C01000F111F0C9FB0010D9F700D16
S11319601C9F700D1124882777FD8095982F74D5BE
S1131970A701960176D69B01AC01C501B40169D4D7
S113198038D5882777FD8095982F66D523D731D50C
S1131990CB01DF91CF911F910F91FF90EF90DF90DA
S11319A0CF90BF90AF909F908F900895CF92DF9289
S11319B0EF92FF92CF93DF93669FE001679FD00D74
S11319C0D00D1124CC0FDD1F9C01229FC001239F49
S11319D0900D900D1124BE01681B790B882777FDAB
S11319E08095982F39D56B017C01BE01882777FD3E
S11319F08095982F31D59B01AC01C701B60191D4D4
S1131A001AD420E030E044E353E42BD62BED3FE03E
S1131A1049E450E486D4EDD4CB01DF91CF91FF901B
S1131A20EF90DF90CF900895909385008093840089
S1131A3082E390E071CC089520E030E044E353E485
S1131A4070D420E030E844E555E40BD620E030E0E3
S1131A5048E454E4FFD3CDD4CB010895BC018827D6
S1131A6077FD8095982FF8D4E7DFDECF0895369A76
S1131A70349BFECF84B195B108954F925F926F92DB
S1131A807F928F929F92AF92BF92CF92DF92EF920A
S1131A90FF92CF93DF93CDB7DEB72C970FB6F894B0
S1131AA0DEBF0FBECDBFBC01882777FD8095982F80
S1131AB0D3D46B017C0120E030E040E450E434D620
S1131AC04B015C0120E030E040E850E4C701B6017E
S1131AD02BD669837A838B839C8320E030E040EAB1
S1131AE050E4C701B60120D66D837E838F83988727
S1131AF020E030E040EC50E4C701B60115D6698718
S1131B007A878B879C8723E63BE041E35FE3C70149
S1131B10B601A7D59B01AC016CEA7CEF85E093E4A8
S1131B2098D32B013C01A7019601C701B60199D5B1
S1131B302AE83AEE47EE5AE394D59B01AC01C3017F
S1131B40B20188D36B017C0129EC3CE847E156E300
S1131B50C501B40186D59B01AC01C701B60179D397
S1131B606B017C012BEC3CEC4CE950E369817A81FC
S1131B708B819C8176D59B01AC01C701B6016AD3E8
S1131B806B017C012AEB32E943E35AE26D817E81E9
S1131B908F81988566D59B01AC01C701B6015AD3E4
S1131BA06B017C012CE832E04EE855E269857A85C8
S1131BB08B859C8556D59B01AC01C701B60149D3E1
S1131BC018D4CB012C960FB6F894DEBF0FBECDBF50
S1131BD0DF91CF91FF90EF90DF90CF90BF90AF90C7
S1131BE09F908F907F906F905F904F9008953FDF0C
S1131BF044CF089533DFFBCF0895AF92BF92CF92C5
S1131C00DF92EF92FF920F931F93CF93DF938C0198
S1131C10DC011D921C9280E090E020DF88EE93E0CE
S1131C207BDBF801808191818937910508F097C0A9
S1131C30C0E0D0E0D12CE12CF12CA12CBB24B39436
S1131C40CE01D8DFD11014C08C3391050CF07CC0C8
S1131C50D801ED91FC91EE0FFF1FEE0FFF1FEE0F69
S1131C60FF1FE156F74F938382837E01DB2C6CC008
S1131C708D3391050CF450C0D801ED91FC9111976E
S1131C80EE0FFF1FEE0FFF1FEE0FFF1FE156F74F82
S1131C90CE018E199F0997838683CD90DC90F6013F
S1131CA0EE0FFF1FEE0FFF1FEE0FFF1FE156F74F62
S1131CB086819781823091050CF445C09601220FEC
S1131CC0331F220F331F220F331FF901E156F74F41
S1131CD06F0162817381C6DDD6018D939C93D80117
S1131CE0ED91FC91EE0FFF1FEE0FFF1FEE0FFF1F94
S1131CF0E156F74FC7018C0F9D1F99230CF40196F1
S1131D009595879595838483F801808191810196C7
S1131D1091838083DA2C18C0D801ED91FC91EE0FE9
S1131D20FF1FEE0FFF1FEE0FFF1FE156F74F22813B
S1131D303381820F931F99230CF40196959587950F
S1131D409383828301C0DA2C2196C53BD10539F0F7
S1131D50F801808191818937910508F471CF8FE969
S1131D6098E0DF91CF911F910F91FF90EF90DF905A
S1131D70CF90BF90AF900895CF93DF9300D0CDB7AD
S1131D80DEB78DE196E00E94EE0085E595E00E94C5
S1131D90EE0085E695E00E94EE0089E795E00E945A
S1131DA0EE0089E995E00E94EE0081EC95E00E9446
S1131DB0EE0085ED95E00E94EE008AEF95E00E942A
S1131DC0EE008DE096E00E94EE0062E070E0CE014D
S1131DD001960E9411018BE196E00E94EE00898138
S1131DE090E0FC01E156F109E331F10550F6E85ABF
S1131DF0FF4F4DC686E00DC081E00BC082E009C0F4
S1131E0083E007C084E005C085E003C087E001C02B
S1131E1080E00F900F90DF91CF9108958F929F9261
S1131E20AF92BF92CF92DF92EF92FF920F931F93E4
S1131E30CF93DF93CDB7DEB7C656D1090FB6F8946A
S1131E40DEBF0FBECDBFCE010196D7DEE82EF92E40
S1131E5020911709211118C08A818F9389818F934A
S1131E6020E236E03F932F938E010D5F1F4F1F93A7
S1131E700F930E945317C8010E94EE000F900F9019
S1131E800F900F900F900F9029813A81121613062C
S1131E900CF05DC00E2D1F2DEE24E394F12C0F2EBB
S1131EA0F0E48F2EF6E09F2EF02D6E0123E0C20E9B
S1131EB0D11C0F2EF4E3AF2EF6E0BF2EF02D80914F
S1131EC017098823C1F0F80181818F9380818F9352
S1131ED085818F9384818F9383818F9382818F9364
S1131EE0BF92AF92DF92CF92DED70FB6F894DEBFE7
S1131EF00FBECDBF1DC0F80187818F9386818F935C
S1131F0081818F9380818F9383818F9382818F933B
S1131F1085818F9384818F93FF92EF929F928F920A
S1131F20DF92CF92C0D70FB6F894DEBF0FBECDBFFD
S1131F30C6010E94EE00C701EFEFEE1AFE0A085F29
S1131F401F4F29813A81821793070CF4B8CFCA59DD
S1131F50DF4F0FB6F894DEBF0FBECDBFDF91CF9138
S1131F601F910F91FF90EF90DF90CF90BF90AF90B3
S1131F709F908F900895CF92DF92EF92FF920F93EC
S1131F801F93CF93DF93CDB7DEB7C055D1090FB6FA
S1131F90F894DEBF0FBECDBF8C01BBD88AE590E0BC
S1131FA05DDD84EF91E0B8D962DDF82EE92E8AE593
S1131FB090E020DE209117092223D9F19F938F937B
S1131FC0F80183A18F9382A18F9381A18F9380A124
S1131FD08F93878D8F93868D8F93858D8F93848D2B
S1131FE08F9385811F928F9384811F928F93838116
S1131FF01F928F9382811F928F93808181701F9291
S11320008F938081869581701F928F9381E996E0EA
S11320109F938F938E010F5F1F4F1F930F9343D78F
S1132020C8010E94EE000FB6F894DEBF0FBECDBF0C
S11320306FC0EF92FF929F938F9385EB96E09F93EF
S11320408F93FE0131967F01FF92EF932CD7C70146
S11320500E94EE0080ED96E00E94EE00F80185817A
S11320601F928F9384811F928F9383811F928F93EA
S113207082811F928F930F2EF0EECF2EF6E0DF2E8B
S1132080F02DDF92CF92FF92EF920DD7C7010E94FD
S1132090EE0082E197E00E94EE00F80183A18F93A5
S11320A082A18F9381A18F9380A18F93878D8F932A
S11320B0868D8F93858D8F93848D8F93DF92CF92AE
S11320C0FF92EF92F0D60FB6F894DEBF0FBECDBFED
S11320D0C7010E94EE0089E297E00E94EE00F80139
S11320E0808181701F928F938081869581701F9269
S11320F08F9381E397E09F938F93FF92EF92D3D6D0
S1132100C7010E94EE000FB6F894DEBF0FBECDBF2C
S1132110C05BDF4F0FB6F894DEBF0FBECDBFDF91BB
S1132120CF911F910F91FF90EF90DF90CF90089582
S1132130DF92EF92FF920F931F93CF93DF93CDB76C
S1132140DEB7C955D1090FB6F894DEBF0FBECDBFB7
S11321507C01D62E88E497E00E94EE0089E597E0A2
S11321600E94EE0068E070E0CE0102960E94110128
S11321708DE196E00E94EE008A818D36F9F0823777
S113218009F046C0CE01049643D6B701F2D89F9316
S11321908F9388E697E09F938F937E018AE0E80E01
S11321A0F11CFF92EF927FD6C7010E94EE000F90C0
S11321B00F900F900F900F900F902EC0CE010496A9
S11321C027D68E010F5F1F4F2D2D4D2DB70162DADB
S11321D0E981F0E0EE0FFF1FE255FE4F21812F93BE
S11321E020812F939F938F938EE797E09F938F93F4
S11321F07E019AE0E90EF11CFF92EF9254D6C701DA
S11322000E94EE000FB6F894DEBF0FBECDBF04C02F
S11322108AE997E00E94EE00C75ADF4F0FB6F894A0
S1132220DEBF0FBECDBFDF91CF911F910F91FF9005
S1132230EF90DF9008959F939F7749D10F900020EE
S11322403AF49058A2EA2AED3FE049E450E413D06E
S1132250BDC15058BB27AA270ED0B8C181D130F0D8
S113226086D120F031F49F3F11F41EF451C10EF4D5
S1132270E095E7FB47C1E92FCBD180F3BA1762079A
S113228073078407950718F071F49EF5E3C10EF403
S1132290E0950B2EBA2FA02D0B01B90190010C0172
S11322A0CA01A0011124FF27591B99F0593F50F48A
S11322B0503E68F11A16F040A22F232F342F4427E2
S11322C0585FF3CF469537952795A795F0405395DA
S11322D0C9F77EF41F16BA0B620B730B840BBAF0AA
S11322E09150A1F0FF0FBB1F661F771F881FC2F715
S11322F00EC0BA0F621F731F841F48F48795779529
S11323006795B795F7959E3F08F0B3CF9395880FDF
S113231008F09927EE0F97958795089530D1E395A6
S113232066C10CD053C123D140F01AD130F021F44E
S11323305F3F19F0E7C051118EC1EAC069D198F32B
S11323409923C9F35523B1F3951B550BBB27AA2732
S113235062177307840738F09F5F5F4F220F331FA4
S1132360441FAA1FA9F333D00E2E3AF0E0E830D070
S113237091505040E695001CCAF729D0FE2F27D073
S1132380660F771F881FBB1F261737074807AB0741
S1132390B0E809F0BB0B802DBF01FF2793585F4FB6
S11323A02AF09E3F510568F0ADC055C15F3FECF384
S11323B0983EDCF3869577956795B795F7959F5F7B
S11323C0C9F7880F911D9695879597F90895E1E0CF
S11323D0660F771F881FBB1F621773078407BA072E
S11323E020F0621B730B840BBA0BEE1F88F7E09589
S11323F0089504D06894B1112EC1089511D188F0C4
S11324009F5790F0B92F9927B751A0F0D1F0660FDC
S1132410771F881F991F1AF0BA95C9F712C0B130F7
S113242081F018D1B1E0089515C1672F782F88275E
S1132430B85F39F0B93FCCF3869577956795B39536
S1132440D9F73EF490958095709561957F4F8F4FA5
S11324509F4F0895E89409C097FB3EF490958095AA
S1132460709561957F4F8F4F9F4F9923A9F0F92F56
S113247096E9BB279395F695879577956795B795D4
S1132480F111F8CFFAF4BB0F11F460FF1BC06F5FBA
S11324907F4F8F4F9F4F16C0882311F096E911C0CC
S11324A0772321F09EE8872F762F05C0662371F0ED
S11324B096E8862F70E060E02AF09A95660F771F01
S11324C0881FDAF7880F9695879597F90895DF9313
S11324D0CF931F930F938B01EC01E6EDF0E01BD03B
S11324E075D09801AE018B01EC0160E070E080E8EA
S11324F09FE3AFDE6FD19801AE010F911F91CF9191
S1132500DF91BBC097F99F6780E870E060E00895B1
S11325109FEF80EC0895DF93CF931F930F93FF9267
S1132520EF92DF927B018C01689405C0DA2EEF01F3
S1132530A4D0FE01E894A59125913591459155913A
S1132540AEF3EF0198DEFE019701A801DA9479F762
S1132550DF90EF90FF900F911F91CF91DF9108953D
S113256000240A941616170618060906089500246E
S11325700A9412161306140605060895C9CF50D0FE
S1132580E8F3E894E0E0BB279F57F0F02AED3FE042
S113259049EC06C0EE0FBB0F661F771F881F28F09B
S11325A0B23A62077307840728F0B25A620B730BBE
S11325B0840BE3959A9572F7803830F49A95BB0FA3
S11325C0661F771F881FD2F7904875C1092E0394A0
S11325D0000C11F4882352F0BB0F40F4BF2B11F40C
S11325E060FF04C06F5F7F4F8F4F9F4F0895EF933D
S11325F0E0FF06C0A2EA2AED3FE049EC5FEB3BDED8
S1132600E5DF0F90039401FC9058EEEFF0E066C113
S113261057FD9058440F551F59F05F3F71F047958F
S1132620880F97FB991F61F09F3F79F08795089574
S1132630121613061406551FF2CF4695F1DF08C093
S1132640161617061806991FF1CF869571056105B0
S113265008940895E894BB2766277727CB0197F958
S113266008950BD0B3CF7CDF28F081DF18F09523D9
S113267009F048CF4DCF1124EECFCADFA0F3959FC8
S1132680D1F3950F50E0551F629FF001729FBB2755
S1132690F00DB11D639FAA27F00DB11DAA1F649F01
S11326A06627B00DA11D661F829F2227B00DA11DB4
S11326B0621F739FB00DA11D621F839FA00D611D3A
S11326C0221F749F3327A00D611D231F849F600D5B
S11326D0211D822F762F6A2F11249F5750408AF094
S11326E0E1F088234AF0EE0FFF1FBB1F661F771F20
S11326F0881F91505040A9F79E3F510570F002CFBA
S1132700AACF5F3FECF3983EDCF386957795679507
S1132710B795F795E7959F5FC1F7FE2B880F911D3D
S11327209695879597F90895FA01EE0FFF1F309655
S11327302105310599F16115710561F48038BFE314
S11327409B0749F168949038810561F08038BFEFA8
S11327509B0741F0992342F5FF3FE105310521052F
S113276011F1E8940894E795D901AA2329F4AB2F31
S1132770BE2FF85FD0F310C0FF5F70F4A695E0F7AA
S1132780F73950F019F0FF3A38F49F779F930CD043
S11327900F9007FC905808953EF0BACE60E070E0C8
S11327A080E89FE308954FE79F775F934F933F93AC
S11327B02F93E7D02F913F914F915F9152DF4DC0FE
S11327C09F93DDDE0F9007FCEE5F11CF11F40EF442
S11327D09FCE6FC025DFD0F39923D9F3CEF39F5753
S11327E0550B87FF74D00024A0E640EA900180587E
S11327F05695979528F4805C660F771F881F20F004
S113280026173707480730F4621B730B840B202903
S113281031294A2BA69517940794202531254A2758
S113282058F7660F771F881F20F0261737074807C9
S113283030F4620B730B840B200D311D411DA095E8
S113284081F7B901842F9158880F9695879508953B
S113285019F40EF057CEFECE5BCEE2DEC8F3963806
S1132860C0F707F80F92E8942BE33AEA48EB5FE7E6
S113287006DF0F920F920F924DB75EB70F92C1D041
S1132880ECE1F1E048DE4F915F91EF91FF91E59526
S1132890EE1FFF1F49F0FE57E0684427EE0F441F68
S11328A0FA95E1F74195550B33D00F9007FE27C0F9
S11328B008959F3F31F0915020F48795779567955F
S11328C0B795880F911D9695879597F9089591501E
S11328D05040660F771F881FD2F708959F938F93F8
S11328E07F936F93FF93EF939B01AC01BADEEF915B
S11328F0FF9111DE2F913F914F915F91B2CE9B01D9
S1132900AC0160E070E080E89FE30BCDFBCDD1CF5C
S113291087DEE8F39923D9F3940F511DBBF391504B
S1132920504094F059F0882332F0660F771F881FC7
S113293091505040C1F79E3F510544F7880F911DB7
S11329409695879597F908955F3FACF0983E9CF073
S1132950BB27869577956795B79508F4B1609395ED
S1132960C1F7BB0F58F711F460FFE8CF6F5F7F4FDB
S11329708F4F9F4FE3CF6FCE0EF09BCFC9CD68949E
S1132980C1CD4EDEC8F39923D1F3C6F3DF93CF93C1
S11329901F930F93FF92C92FDD2788232AF02197D5
S11329A0660F771F881FDAF720E030E040E85FEB1E
S11329B09FE3883920F0803E30F021968F774ADCFF
S11329C0E4E4F1E003C046DCE1E7F1E0A4DD8B01DF
S11329D0BE01EC01FB2E6F5771097595771F880BAB
S11329E0990B3ADD28E132E741E35FE346DEAF2DA0
S11329F09801AE01FF900F911F91CF91DF913BDCC5
S1132A00E5CDFA01DC01AA0FBB1F9B01AC01BF5746
S1132A1028F422273327442750781FC0B75188F45D
S1132A20AB2F0024469537952795011CA395D2F327
S1132A30002069F0220F331F441FB395DAF30DD041
S1132A4008CC61307105A0E88A07B94630F49B01CF
S1132A50AC016627772788279078309621F0208369
S1132A60318342835383089597FB072E16F4009411
S1132A7006D077FD08D020D007FC05D03EF4909511
S1132A8081959F4F0895709561957F4F0895EE0F3E
S1132A90FF1F0590F491E02D0994A29FB001B39F0C
S1132AA0C001A39F700D811D1124911DB29F700D53
S1132AB0811D1124911D0895AA1BBB1B51E107C060
S1132AC0AA1FBB1FA617B70710F0A61BB70B881FBA
S1132AD0991F5A95A9F780959095BC01CD01089549
S1132AE00F931F93CF93DF93869F8001879F100DD1
S1132AF0969F100D1124C8010DD0EC01009721F010
S1132B00A80160E070E0A1D1CE01DF91CF911F91C7
S1132B100F910895CF93DF938230910510F482E0F2
S1132B2090E0E0911E09F0911F0920E030E0A0E060
S1132B30B0E0309739F14081518148175907B8F016
S1132B404817590771F482819381109729F01396DD
S1132B509C938E9312972CC090931F0980931E0907
S1132B6027C02115310531F04217530718F0A90188
S1132B70DB0101C0EF019A01BD01DF010280F38195
S1132B80E02DD7CF21153105F9F0281B390B24305E
S1132B90310580F48A819B816115710521F0FB0167
S1132BA09383828304C090931F0980931E09FE01BE
S1132BB0329644C0FE01E20FF31F81939193225099
S1132BC03109398328833AC020911C0930911D09A9
S1132BD0232B41F4209102013091030130931D090C
S1132BE020931C0920910001309101012115310528
S1132BF041F42DB73EB74091040150910501241BC7
S1132C00350BE0911C09F0911D09E217F307A0F4BC
S1132C102E1B3F0B2817390778F0AC014E5F5F4F2E
S1132C202417350748F04E0F5F1F50931D0940933A
S1132C301C098193919302C0E0E0F0E0CF01DF91A1
S1132C40CF910895CF93DF93009709F487C0FC01D7
S1132C50329713821282C0911E09D0911F092097C6
S1132C6081F420813181280F391F80911C099091B2
S1132C701D098217930779F5F0931D09E0931C0948
S1132C806DC0DE0120E030E0AE17BF0750F41296AD
S1132C904D915C9113979D014115510509F1DA019C
S1132CA0F3CFB383A28340815181840F951F8A1788
S1132CB09B0771F48D919C911197840F951F029637
S1132CC09183808312968D919C9113979383828331
S1132CD02115310529F4F0931F09E0931E093EC024
S1132CE0D9011396FC93EE9312974D915D91A40F25
S1132CF0B51FEA17FB0779F480819181840F951F32
S1132D000296D90111969C938E9382819381139696
S1132D109C938E931297E0E0F0E08A819B81009768
S1132D2019F0FE01EC01F9CFCE0102962881398118
S1132D30820F931F20911C0930911D092817390710
S1132D4069F4309729F410921F0910921E0902C0E9
S1132D5013821282D0931D09C0931C09DF91CF9175
S1132D6008958F929F92AF92BF92CF92DF92EF928B
S1132D70FF92CF93DF93EC01688179818A819B81F3
S1132D80611571058105910521F464E279ED8BE506
S1132D9097E02DE133EF41E050E07FD349015A0140
S1132DA09B01AC01A7EAB1E494D36B017C01ACEEC6
S1132DB0B4EFA501940199D3C60ED71EE81EF91EDF
S1132DC0F7FE06C081E0C81AD108E10880E8F80AD5
S1132DD0C882D982EA82FB82C6019F77DF91CF91B4
S1132DE0FF90EF90DF90CF90BF90AF909F908F9027
S1132DF00895B7CF86E091E0B4CFA0E0B0E080932F
S1132E00060190930701A0930801B0930901089566
S1132E10FC0188279927E89421912032E9F329308D
S1132E2010F02E30C8F32B3239F02D3231F468947F
S1132E3003C031D0820F911D219120532A30C8F351
S1132E401EF4909581959F4F0895DC0101C06D9308
S1132E5041505040E0F70895FB01DC018D91019051
S1132E6080190110D9F3990B0895FB01DC0101903D
S1132E700D920020E1F70895FB01DC014150504020
S1132E8048F001900D920020C9F701C01D924150F5
S1132E905040E0F708957AE0979F902D879F802D0A
S1132EA0910D112408950F931F93CF93DF93CDB702
S1132EB0DEB72E970FB6F894DEBF0FBECDBF0D89D7
S1132EC01E8986E08C831A8309838FEF9FE79E8394
S1132ED08D83AE01475E5F4F6F89788DCE01019679
S1132EE048D0EF81F885E00FF11F10822E960FB6BF
S1132EF0F894DEBF0FBECDBFDF91CF911F910F912C
S1132F0008950F931F93CF93DF93CDB7DEB72E971A
S1132F100FB6F894DEBF0FBECDBF8C01CA0146E0E8
S1132F204C831A83098377FF02C060E070E8615024
S1132F3071097E836D83A901BC01CE01019619D06C
S1132F404D815E8157FD0AC02F8138854217530792
S1132F500CF49A01F801E20FF31F10822E960FB6BB
S1132F60F894DEBF0FBECDBFDF91CF911F910F91BB
S1132F7008952F923F924F925F926F927F928F9219
S1132F809F92AF92BF92CF92DF92EF92FF920F93F4
S1132F901F93CF93DF93CDB7DEB72C970FB6F8947A
S1132FA0DEBF0FBECDBF7C016B018A01FC0117821D
S1132FB01682838181FFB0C1CE0101964C01F701D5
S1132FC09381F60193FD859193FF81916F0188238D
S1132FD009F49EC1853239F493FD859193FF819163
S1132FE06F01853221F4B70190E0C7D1E8CF512CAD
S1132FF0312C20E02032A0F48B3269F030F480329E
S113300059F0833269F420612CC08D3239F0803359
S113301039F4216026C02260246023C0286021C0C6
S113302027FD27C030ED380F3A3078F426FF06C06C
S1133030FAE05F9E300D1124532E13C08AE0389EAF
S1133040300D1124332E20620CC08E3221F426FD63
S11330505FC1206406C08C3611F4206802C0883633
S113306041F4F60193FD859193FF81916F018111E4
S1133070C1CF982F9F7D9554933028F40C5F1F4F38
S1133080FFE3F9830DC0833631F0833771F0833564
S113309009F057C021C0F801808189830E5F1F4F5A
S11330A044244394512C540114C03801F2E06F0EAF
S11330B0711CF801A080B18026FF03C0652D70E06B
S11330C002C06FEF7FEFC5012C874CD12C01830127
S11330D02C852F77222E16C03801F2E06F0E711C5A
S11330E0F801A080B18026FF03C0652D70E002C006
S11330F06FEF7FEFC5012C872AD12C012C85206826
S1133100222E830123FC19C0832D90E04816590612
S1133110A0F4B70180E290E030D13A94F5CFF50104
S113312027FC859127FE81915F01B70190E025D1AD
S113313031103A94F1E04F1A51084114510479F7CF
S1133140DEC0843611F0893631F5F80127FF07C057
S113315060817181828193810C5F1F4F08C06081FF
S11331607181882777FD8095982F0E5F1F4F2F76EA
S1133170B22E97FF09C090958095709561957F4F09
S11331808F4F9F4F2068B22E2AE030E0A40127D150
S1133190A82EA81843C0853729F42F7EB22E2AE022
S11331A030E025C0F22FF97FBF2E8F36C1F018F41E
S11331B0883579F0ADC0803719F0883721F0A8C080
S11331C02F2F2061B22EB4FE0DC08B2D8460B82E3B
S11331D009C024FF0AC09F2F9660B92E06C028E0BC
S11331E030E005C020E130E002C020E132E0F80127
S11331F0B7FE07C060817181828193810C5F1F4F8C
S113320006C06081718180E090E00E5F1F4FA401D1
S1133210E6D0A82EA818FB2DFF77BF2EB6FE0BC054
S11332202B2D2E7FA51450F4B4FE0AC0B2FC08C0A6
S11332302B2D2E7E05C07A2C2B2D03C07A2C01C099
S1133240752C24FF0DC0FE01EA0DF11D8081803331
S113325011F4297E09C022FF06C07394739404C03C
S1133260822F867809F0739423FD12C020FF06C0D4
S11332705A2C731418F4530C5718732C731460F4E9
S1133280B70180E290E02C8778D073942C85F6CF38
S1133290731410F4371801C0312C24FF11C0B70186
S11332A080E390E02C8769D02C8522FF16C021FF93
S11332B003C088E590E002C088E790E0B7010CC045
S11332C0822F867851F021FD02C080E201C08BE29A
S11332D027FD8DE2B70190E050D0A51430F4B7017A
S11332E080E390E04AD05A94F8CFAA94F401EA0D0E
S11332F0F11D8081B70190E040D0A110F6CF3320BA
S113330009F45DCEB70180E290E037D03A94F7CF6C
S1133310F7018681978102C08FEF9FEF2C960FB63D
S1133320F894DEBF0FBECDBFDF91CF911F910F91F7
S1133330FF90EF90DF90CF90BF90AF909F908F90D1
S11333407F906F905F904F903F902F900895FC0175
S11333500590615070400110D8F7809590958E0FBC
S11333609F1F0895FC016150704001900110D8F72F
S1133370809590958E0F9F1F08950F931F93CF9361
S1133380DF93182F092FEB018B8181FD03C08FEF91
S11333909FEF20C082FF10C04E815F812C813D8150
S11333A0421753077CF4E881F9819F012F5F3F4F57
S11333B039832883108306C0E885F985812F099510
S11333C0892B29F72E813F812F5F3F4F3F832E8327
S11333D0812F902FDF91CF911F910F910895FA01C2
S11333E0AA27283051F1203181F1E8946F936E7F40
S11333F06E5F7F4F8F4F9F4FAF4FB1E03ED0B4E031
S11334003CD0670F781F891F9A1FA11D680F791F71
S11334108A1F911DA11D6A0F711D811D911DA11D82
S113342020D009F468943F912AE0269F1124301992
S1133430305D3193DEF6CF010895462F4770405D2D
S11334404193B3E00FD0C9F7F6CF462F4F70405DDC
S11334504A3318F0495D31FD4052419302D0A9F737
S1133460EACFB4E0A6959795879577956795BA9531
S1133470C9F700976105710508959B01AC010A2EF7
S113348006945795479537952795BA95C9F7620FCE
S1133490731F841F951FA01D0895052E97FB16F416
S11334A000940FD057FD05D024D007FC02D046F479
S11334B008C050954095309521953F4F4F4F5F4F31
S11334C0089590958095709561957F4F8F4F9F4F8C
S11334D00895E3DAA59F900DB49F900DA49F800DED
S11334E0911D11240895B7FFF4CFF3DF821B930BD2
S11334F00895A1E21A2EAA1BBB1BFD010DC0AA1F31
S1133500BB1FEE1FFF1FA217B307E407F50720F048
S1133510A21BB30BE40BF50B661F771F881F991FC3
S11335201A9469F760957095809590959B01AC010C
S10D3530BD01CF010895F894FFCF08
S113353A00002009200001000000AC070100B607C2
S113354A30401030300808083040403537303739B9
S113355A3C3A393537300C0C0C0C0C0C3E0C0C0C68
S113356A0C0C0C3E0C0C0C0C0C0C3E0C0C0C0C0C29
S113357A0C30080808181818181818080808080831
S113358A08101010101010303C2D392E3A00303C1F
S113359A2D392E3A00293526322733002935263289
S11335AA2733003332313033322C2B313036353431
S11335BA3A3938332F2E2D2C202020140C20140CA9
S11335CA2020202020140C20140C20373737333ABB
S11335DA37333A37003E3E3E3F3A36333A372205CE
S11335EA2B0535053F054A055005070053657061EB
S11335FA726174696F6E206265747765656E207492
S113360A776F20736D616C6C206F626A6563747383
S113361A3A20256420282564202D20256429206346
S113362A656E7465722025640D0A004576617369B6
S113363A766520616374696F6E2C20746F207468D8
S113364A65206C6566740D0A005061746820626CAA
S113365A6F636B6564206174202564206465672C3C
S113366A20256420646973742E2020256420746FD5
S113367A207468652072696768742C202564206147
S113368A686561642E0D0A005363616E6E696E6724
S113369A2061726561005363616E6E696E672061B1
S11336AA7265610D0A005061746820626C6F636B05
S11336BA65640D0A005061746820626C6F636B65FF
S11336CA6420696E206578706C6F726174696F6EBC
S11336DA2C20726F746174696E6720256420746F7C
S11336EA2061766F6964206F626A6563740D0A00EB
S11336FA536D616C6C206F626A6563747320666FC4
S113370A756E640D0A0057452057494E21005745E6
S113371A2057494E31210D0A0057452057494E3248
S113372A210D0A00526561736F6E3A2025730D0AE2
S113373A0054686174277320616E206F626A65633E
S113374A742E0D0A004F756368210054686174274A
S113375A73206120636C6966662E0D0A00546861E1
S113376A742773206120636C69666600466F756E00
S113377A6420616E20656467652E0D0A0057452032
S113378A57494E0D0A004920646F6E2774207761E9
S113379A6E7420746F20676F207468657265006D9B
S11337AA2C25642C25732E00722C25642E00576553
S11337BA6C636F6D6520746F0A426C6173744F6633
S11337CA66546F4D6172732E63210057656C636F83
S11337DA6D6520746F2049526F626F74204D617257
S11337EA7320526F626F7420696E746572666163C6
S11337FA650D0A0054686520736572766F20616EE0
S113380A642049522073656E736F72206172652059
S113381A6265696E6720696E697469616C697A6543
S113382A640D0A0054686520686172647761726580
S113383A20686173206265656E20696E69746961C6
S113384A6C697A65642E0054686520726F626F74BD
S113385A20686173207265616368656420746865B1
S113386A2072657472696576616C207A6F6E650D73
S113387A0A0054686520726F626F7420686173204D
S113388A7265616368656420746865207265747220
S113389A696576616C207A6F6E650054686520727A
S11338AA6F626F7420686173206964656E746966F7
S11338BA69656420746865207265747269657661E5
S11338CA6C207A6F6E650D0A0054686520726F6207
S11338DA6F7420686173206964656E7469666965CA
S11338EA64207468652072657472696576616C20F7
S11338FA7A6F6E6500506C6561736520696E6974D0
S113390A69616C697A652074686520726F626F7484
S113391A2066697273742E0D0A005363616E6E69B0
S113392A6E67207468652061726561005363616E15
S113393A6E696E672074686520617265612E2E2E29
S113394A0D0A0025642C2025642C2025642C2025AE
S113395A64004C65667442756D70005269676874D8
S113396A42756D7000436C6966664C656674004303
S113397A6C696666526967687400436F6C6F72009B
S113398A4E6F6E65006129206175746F6E6F6D6F7D
S113399A75730D0A00622920626567696E2074686E
S11339AA6520746573740D0A006529207265616364
S11339BA68656420746865207265747269657661E5
S11339CA6C207A6F6E650D0A007229207265747212
S11339DA696576616C207A6F6E652068617320620E
S11339EA65656E206964656E7469666965640D0A45
S11339FA006D29206D6F76652074686520726F6288
S1133A0A6F740D0A006929206D6F766520746865E4
S1133A1A20726F626F742069676E6F72696E6720B5
S1133A2A73656E736F72730D0A0073292073636171
S1133A3A6E2074686520617265610D0A00596F759C
S1133A4A722063686F6963653A20000D0A0D0A00E3
S1133A5A4F626A6563747320666F756E643A2025D3
S1133A6A640D0A00632C25642C25642C25642E001D
S1133A7A25643A20616E67756C6172206C6F6361AC
S1133A8A74696F6E3A202533642020202064697398
S1133A9A74616E63653A2025336420202020776997
S1133AAA6474683A2025336420202020616E677587
S1133ABA6C61722077696474683A202533640D0A4C
S1133ACA00652C25642C25642C25642C25642C255E
S1133ADA642C25642C25642C25642C25642C2564EB
S1133AEA2C25642E0049522064697374616E6365DF
S1133AFA3A202533642076616C202533640D0A004C
S1133B0A436C6966662053656E736F72730D0A009F
S1133B1A20204C6566743A2025346409462D4C6588
S1133B2A66743A2025346409462D52696768743AE2
S1133B3A202534640952696768743A202534640D6F
S1133B4A0A00436C6966662053656E736F7220536C
S1133B5A69676E616C730D0A0042756D703A0D0ADD
S1133B6A0020204C6566743A202564095269676806
S1133B7A743A2025640D0A0072205B2D5D232920E6
S1133B8A726F746174650D0A006D205B2D5D2329C3
S1133B9A206D6F76650D0A0044656772656573204A
S1133BAA726F74617465643A2025640D0A004D6F5E
S1133BBA7665642025640D0A53746F7020726561FA
S1133BCA736F6E3A2025730D0A00496E76616C692B
S10D3BDA6420696E7075740D0A0012
S9030000FC
